:020000040800F2
:1000000000000220B91C0008251B00082B1B00085B
:10001000311B0008371B00083D1B000800000000D2
:1000200000000000000000000000000081600008E7
:10003000431B000800000000D1620008396300087B
:10004000091D0008091D0008091D0008091D0008F8
:10005000091D0008091D0008091D0008091D0008E8
:10006000091D0008091D0008091D0008091D0008D8
:10007000091D0008091D0008091D0008091D0008C8
:10008000091D0008091D0008091D0008091D0008B8
:10009000511B0008651B0008091D0008091D000808
:1000A000091D0008791B0008091D0008091D00082A
:1000B000091D0008091D0008091D0008091D000888
:1000C000091D0008091D0008091D0008091D000878
:1000D000091D0008091D00088D1B0008091D0008E6
:1000E000091D0008091D0008091D0008091D000858
:1000F000091D0008091D0008091D0008091D000848
:10010000091D0008091D0008091D0008091D000837
:10011000091D0008091D0008091D0008091D000827
:10012000091D0008091D0008091D0008091D000817
:10013000091D00080000000000000000091D000863
:10014000091D0008091D0008091D0008091D0008F7
:10015000091D0008091D0008091D0008091D0008E7
:10016000091D0008091D0008091D0008091D0008D7
:10017000091D0008091D0008091D000800000000F5
:1001800000000000091D0008000000000000000041
:10019000091D00080000000000000000091D000803
:1001A000000000000000000000000000091D000821
:1001B000091D0008091D0008091D0008091D000887
:0401C000091D00080D
:1001D00010B5054C237833B9044B13B10448AFF381
:1001E00000800123237010BD680000200000000083
:1001F0006469000808B5034B1BB103490348AFF31A
:10020000008008BD000000006C0000206469000848
:1002100053B94AB9002908BF00281CBF4FF0FF316D
:100220004FF0FF3000F070B9ADF1080C6DE904CE6D
:1002300000F006F8DDF804E0DDE9022304B07047C1
:100240002DE9F047089E0D4604460F46002B4AD183
:100250008A42944665D9B2FA82F343B102FA03FCAA
:10026000C3F120029F4020FA02F217439C404FEA5C
:100270001C4E1FFA8CF5B7FBFEF1220C0EFB11771A
:1002800042EA074201FB05F090420AD91CEB020248
:1002900001F1FF3780F01C81904240F21981023950
:1002A0006244121AA4B2B2FBFEF00EFB102244EA22
:1002B000024400FB05F5A5420AD91CEB040400F139
:1002C000FF3280F00781A54240F204816444023885
:1002D00040EA0140641B00211EB1DC400023C6E956
:1002E0000043BDE8F0878B4208D9002E00F0ED8076
:1002F0000021C6E900050846BDE8F087B3FA83F19E
:10030000002949D1AB4202D3824200F2F880841A1C
:1003100065EB030201201746002EE2D0C6E9004734
:10032000DFE702B9FFDEB2FA82F3002B40F09080E3
:100330008A1A4FEA1C471FFA8CFE0121B2FBF7F51F
:1003400007FB1520220C42EA00420EFB05F090420A
:1003500008D91CEB020205F1FF3802D2904200F2EC
:10036000CB804546121AA4B2B2FBF7F007FB10226D
:1003700044EA02440EFB00FEA64508D91CEB040427
:1003800000F1FF3202D2A64500F2BB801046A4EB7A
:100390000E0440EA05409FE7C1F120078B4022FA96
:1003A00007FC4CEA030C05FA01F420FA07F3FD40C0
:1003B0004FEA1C492343B5FBF9F81FFA8CFE09FBF1
:1003C00018551C0C44EA054408FB0EF5A54202FA38
:1003D00001F200FA01F00BD91CEB040408F1FF3A1A
:1003E00080F08880A54240F28580A8F1020864442C
:1003F000641B9DB2B4FBF9F309FB134445EA0444C2
:1004000003FB0EFEA64508D91CEB040403F1FF35DF
:100410006CD2A6456AD9023B644443EA0843A3FB75
:100420000295A4EB0E04AC42C846AE4656D353D058
:1004300056B1B0EB080264EB0E0404FA07F7CA40A9
:10044000CC401743C6E9007418460021BDE8F08788
:10045000C3F1200102FA03FC20FA01F225FA01F1AE
:100460009D402A434FEA1C471FFA8CFEB1FBF7F070
:1004700007FB1015110C41EA054100FB0EF58D42FA
:1004800004FA03F408D91CEB010100F1FF382FD264
:100490008D422DD902386144491B92B2B1FBF7F568
:1004A00007FB151142EA014205FB0EF1914208D902
:1004B0001CEB020205F1FF3816D2914214D9023D1D
:1004C0006244521A45EA004138E73146304608E7AF
:1004D0003946E6E61046FBE64845A9D2B9EB0208E4
:1004E00065EB0C0E013BA3E74546EAE72B4694E794
:1004F0004046D1E7D0467BE7023D624432E70846FA
:100500000AE76444023842E7704700BF80B58AB00A
:1005100000AF264B264A1A60244B10225A60234B08
:1005200000229A60214B0022DA60204B4FF4003207
:100530001A611E4B00225A611C4B00221A761B4B7B
:1005400000225A76194B00229A76184B0022DA764E
:10055000164B00221A77154B00225A77134801F0E8
:1005600017FC0346002B01D001F038FA00237B6111
:100570000023BB610123FB6100233B6000237B6000
:100580000023BB600023FB6000233B6101233B622F
:100590000E237B623B461946044801F0F5FC0348F4
:1005A00001F0D2FD00BF2837BD4680BD8400002089
:1005B0000064004080B58AB000AF786007F1140392
:1005C00000221A605A609A60DA601A617B681B68C0
:1005D000214A93423CD100233B61204B1B6C1F4AB4
:1005E00043F0007313641D4B1B6C03F000733B61FD
:1005F0003B690023FB60194B1B6B184A43F0010356
:100600001363164B1B6B03F00103FB60FB684FF495
:10061000C0537B610223BB610023FB6103233B6268
:1006200009237B6207F1140319460D4802F0BCFB55
:1006300000220521142002F0FBFA142002F014FB22
:1006400000220521152002F0F3FA152002F00CFB20
:1006500000BF2837BD4680BD00640040003802401E
:100660000000024080B485B000AFF860B9607A60E5
:10067000FB68074A1A60BB68064A1A607B688022DA
:100680001A6000BF1437BD465DF8047B704700BF99
:10069000B000002050010020B0B588B000AF0A4B78
:1006A0003C1D1D460FCD0FC495E8070084E80700E8
:1006B0003B1D0021184604F020FE0346034A136048
:1006C00000BF2037BD46B0BD88690008AC000020DF
:1006D00080B582B000AF7860012004F05AFEFBE7DD
:1006E00080B58AB000AF07F1140300221A605A6087
:1006F0009A60DA601A6100233B612D4B1B6B2C4A18
:1007000043F0040313632A4B1B6B03F004033B61A8
:100710003B690023FB60264B1B6B254A43F080039B
:100720001363234B1B6B03F08003FB60FB68002308
:10073000BB601F4B1B6B1E4A43F0010313631C4B32
:100740001B6B03F00103BB60BB6800237B60184B8D
:100750001B6B174A43F002031363154B1B6B03F02B
:1007600002037B607B6800222021124802F0B0FC6B
:100770004FF400537B614FF40413BB610023FB6112
:1007800007F1140319460C4802F00EFB20237B618D
:100790000123BB610023FB6100233B6207F11403CB
:1007A0001946044802F000FB00BF2837BD4680BD53
:1007B00000380240000002400008024080B582B0CC
:1007C00002AF01F0A3FA00F039F8FFF789FFFFF755
:1007D0009DFE01F0F7F90221104801F01BFF1048BF
:1007E00000F0F0FA0F4B01930223009300238022C4
:1007F0000D490E4804F0F2FE0D4B019303230093C4
:10080000002380220B490C4804F0E8FE00F04AF96E
:10081000FFF742FF04F06AFDFEE700BF84000020FE
:10082000BD15000850030020A469000875090008E0
:1008300054030020B0690008B90A000880B594B0DC
:1008400000AF07F11C0334220021184605F0AEFF6B
:1008500007F1080300221A605A609A60DA601A6190
:1008600000237B602A4B1B6C294A43F0805313649E
:10087000274B1B6C03F080537B607B6800233B603D
:10088000244B1B6823F44043224A43F48043136003
:10089000204B1B6803F440433B603B680223FB6131
:1008A0000123BB621023FB6202237B630023BB6333
:1008B0001023FB634FF4A8733B6404237B6402237F
:1008C000BB640223FB6407F11C03184602F096FF89
:1008D0000346002B01D001F081F80F23BB600223F7
:1008E000FB6000233B614FF480537B610023BB61BD
:1008F00007F108030221184602F004FC0346002B0E
:1009000001D001F06BF800BF5037BD4680BD00BF7D
:10091000003802400070004080B58AB000AF7860B7
:1009200039607B68002B02D14FF480733B61002358
:100930007B610023BB610023FB6108233B6200BF96
:100940000B4801F020FD0346002BF9D03A6807F16F
:100950000C0307F11001064801F03AFC0346002B96
:1009600001D001F03BF800BF2837BD4680BD00BF75
:100970008400002080B582B000AF2F4B1B785BB2A3
:10098000002B54D02C4B00221A702C4B1B692C4A84
:1009900093602A4B1B68B3F5006F3CD0B3F5006F32
:1009A0003CD8B3F5E06F33D0B3F5E06F36D8B3F58C
:1009B000C06F2AD0B3F5C06F30D8B3F5A06F21D087
:1009C000B3F5A06F2AD8B3F5806F18D0B3F5806F58
:1009D00024D8B3F5407F0FD0B3F5407F1ED8B3F5D0
:1009E000807F03D0B3F5007F03D017E000237B6046
:1009F00014E001237B6011E002237B600EE00323FF
:100A00007B600BE004237B6008E005237B6005E04E
:100A100006237B6002E007237B6000BF094B1B6855
:100A2000002B04D0074B1B680549786898470A20BB
:100A300004F022FFA1E700BFC81300209C13002090
:100A4000901300206C03002080B483B000AF786066
:100A50007B68002B02D0044A7B68136000BF0C3710
:100A6000BD465DF8047B70476C03002080B582B002
:100A700000AF7860084B094A0021786801F0B8FCA3
:100A80000346002B01D000F0A9FF054B01221A708C
:100A900000BF0837BD4680BD901300209C13002086
:100AA000C813002080B500AF0248FFF7CDFF00BF9C
:100AB00080BD00BF650D000880B582B000AF8C4BD3
:100AC0001B785BB2002B7BD0894B00221A70894BBC
:100AD0001B68002B00D0FEE7874B1B681B7818466D
:100AE00000F05CF90346BB71BB79032B4CD801A223
:100AF00052F823F0050B0008170B00083F0B000805
:100B0000770B00087B4B1B687B4A1268114618461E
:100B100000F080FA3BE0774B1B68774A1268114679
:100B2000184600F0ADFA754B02221A70714B1B6823
:100B3000714A12681146184600F0F8F827E06D4B2C
:100B40001B686D4A12681146184600F0D1FA6C4BCA
:100B50001B68002B1AD16B4B1B68002B16D0674B00
:100B600002221A70634B1B68634A126811461846CA
:100B700000F0DCF80AE05F4B1B685F4A1268114620
:100B8000184600F0FDFA02E000BF00E000BFBB79AC
:100B9000032B00F0A8805B4B1B68002B40F0A38068
:100BA000594B1B68002B00F09E80584B00221A8086
:100BB000554B1B684F4A126855491046984792E0BA
:100BC000544B1B785BB2002B00F08D80524B1B689E
:100BD000002B00D0FEE70423FB71504B1B68002B59
:100BE0001CD1464B1B78002B18D14D4B1B6803F5CD
:100BF00080531B68494A1360484B1B68444A02F5FE
:100C000080521360464B1B6803F580531B68072B0B
:100C100002D80023FB7101E00123FB713F4B1B68ED
:100C2000002B03D1354B1B78022B4ED1334B1B7855
:100C3000012B02D10223FB7105E0304B1B78022B04
:100C400001D10323FB71FB79032B3DD801A252F89C
:100C500023F000BF650C0008770C00088D0C00081D
:100C6000B70C00082C4B1B682D4A12681146184619
:100C700000F0BAF829E0284B1B68294A126811468F
:100C8000184600F0F3F80423FB711EE0254B1B68A7
:100C9000002B0DD0234B1B68013B224A13601E4BD7
:100CA0001B681F4A12681146184600F01FF90CE035
:100CB0000423FB7109E0184B1B68194A126811469E
:100CC000184600F079F900E000BF144B1B68002BB8
:100CD00009D10A4B00221A70134B4FF0FF321A60F1
:100CE0000C4B00221A70642004F0C6FDE7E600BF3A
:100CF000C9130020CC130020B8130020700300207B
:100D00005C0300206403002068030020C21300205D
:100D10008C030020CA130020D013002060030020A1
:100D2000BC130020580300200400002080B483B0CE
:100D300000AF78603960084A3B681360074A7B68F7
:100D40001360074B01221A70002318460C37BD466A
:100D50005DF8047B704700BFBC130020D013002057
:100D6000CA13002080B483B000AF78603960084AAD
:100D70003B681360074A7B681360074B01221A70B7
:100D8000002318460C37BD465DF8047B704700BF52
:100D9000B8130020CC130020C913002080B483B006
:100DA00000AF0346FB71FB791B09FB71FB79032B39
:100DB00001D8FB7900E0042318460C37BD465DF8E6
:100DC000047B704780B483B000AF78607B68002BF1
:100DD00002D0044A7B68136000BF0C37BD465DF843
:100DE000047B70476803002080B584B000AF786052
:100DF00039603B6803F580531B68BB603B6803F5B3
:100E000080531B68184A9360BB68DBB203F00F0382
:100E1000DAB2154B1A700023FB600AE0FB6801335D
:100E20003968FA680A4411780F4AD154FB680133D3
:100E3000FB60FA68BB689A42F0D3BB680133FB6081
:100E400007E0094AFB68134400221A70FB6801336B
:100E5000FB60FB68072BF4D903497868FFF75CFD5A
:100E600000BF1037BD4680BD7403002080B586B03A
:100E700000AF786039600023FB753B6803F5805351
:100E80001B681B0ADBB203F00F03DBB243F0100355
:100E9000DBB23B723B6803F580531B68DBB27B72AD
:100EA0000223FB750BE0FB7D9A1EFB7D39688A5C93
:100EB00018333B4403F8102CFB7D0133FB75FB7D9D
:100EC000072BF0D93B6803F580531B68063B064AA5
:100ED000136007F1080319467868FFF71DFD00BF8E
:100EE0001837BD4680BD00BF6003002080B584B0C8
:100EF00000AF786039600023FB732A4B1B68072B17
:100F000002D8284B1B6800E00723274A9360274B31
:100F10001B78DBB243F02003DAB2234B1A70234B69
:100F20001B78DBB21A461346DB009A1A204B1B686B
:100F30001344204A13600023FB730CE0FA7B1D4B23
:100F40001B681A44FB7B01333968895C164AD1540B
:100F5000FB7B0133FB73FA7B134B9B689A42EDD307
:100F6000124B1B78DBB20133DAB2104B1A700F4B05
:100F70001B78DBB20F2B06D90E4B1B680C4A136093
:100F80000A4B00221A70074B1A68074B9B68D31A4A
:100F9000044A136004497868FFF7BEFC00BF1037AD
:100FA000BD4680BD6003002074030020C0130020F4
:100FB000C41300200400002080B584B000AF786026
:100FC0003960114B30221A70104B1B68DAB20E4B8D
:100FD0005A700D4B00229A700323FB7306E0FB7BD3
:100FE000094A0021D154FB7B0133FB73FB7B072BA8
:100FF000F5D9074B01221A7003497868FFF78CFC7A
:1010000000BF1037BD4680BD7403002000000020E3
:10101000C013002080B584B000AF786039603B68B1
:101020001B7803F00F03BB60124ABB681360114BBF
:101030001B68114A02F5805213600023FB600BE02D
:10104000FB6801333A68D15C0C4AFB6813440A46DA
:101050001A70FB680133FB60FB68BA689A42EFD8EC
:10106000064ABB689360054800F0C4F800BF10371B
:10107000BD4680BD640300208C0300208003002057
:1010800080B584B000AF786039603B681B781B0284
:1010900003F470633A68527813431A46114B1A608E
:1010A000104B1B68104A02F5805213600F4B06224A
:1010B0009A600023FB730023FB7309E0FB7B9A1CFF
:1010C000FB7B3968895C094AD154FB7B0133FB7394
:1010D000FB7B072BF2D9054800F08CF800BF1037D6
:1010E000BD4680BD640300208C03002080030020E7
:1010F00080B584B000AF786039600023FB731D4B6E
:101100001B68072B02D81B4B1B6800E007231A4AF9
:1011100093601A4B1B78DBB21A463B681B7803F0CE
:101120000F039A4222D10023FB7309E0FB7B5A1C78
:10113000FB7B3968895C104AD154FB7B0133FB731C
:10114000FA7B0D4B9B689A42F0D30C4B1B78DBB2B9
:101150000E2B05D8094B1B78DBB20133DBB200E064
:101160000023064A1370044800F044F800BF10370B
:10117000BD4680BD6403002080030020C013002012
:1011800080B485B000AF786039603B681B78FB7332
:101190003B685B78BB73BB7B114A1360FB7B322BD4
:1011A00015D0322B15DC302B02D0312B0BD010E0B8
:1011B0000C4B01221A700C4B1B680C4A13600C4B31
:1011C00001221A7006E0074B02221A7002E000BFEB
:1011D00000E000BF00BF1437BD465DF8047B7047D8
:1011E000580300207003002004000020C4130020D6
:1011F000C013002080B485B000AF7860174B1B8807
:10120000FB8114E0154B1B889BB21A46FB89D31A4D
:10121000124A128892B211467A68D25C104B5A5424
:101220000E4B1B889BB201339AB20C4B1A800B4BAE
:101230001B889BB219467B689A68FB8913449942C4
:10124000E0D3084B1A687B689B68D31A054A136081
:1012500000BF1437BD465DF8047B7047C213002001
:101260008C0300206403002080B500AF00F084FDF3
:101270000346024A136000BF80BD00BFD8130020A0
:1012800080B400AF05231846BD465DF8047B704767
:1012900080B582B000AF00237B60FFF7F1FF02460C
:1012A000044B1B6813447B607B6818460837BD46B7
:1012B00080BD00BFD813002080B586B000AF786035
:1012C0000023FB757B689B78012B2DD1FFF7CCFFAA
:1012D000314B27221A70304B01225A7000233B6198
:1012E00013E02E4B1B68DBB21A463B69C3F10303C4
:1012F000DB0042FA03F359B2274A3B691344053332
:101300000A461A703B6901333B613B69032BE8DDF8
:10131000214B03F5805304225A711F4B00221A718E
:101320001D4800F09DFA32E07B689B78022B26D1A5
:101330007B68DB781A067B681B791B041A437B6881
:101340005B791B0213437A6892791343FB60FFF7C2
:101350009FFF0246FB68934207D1114B01221A708E
:101360007B685A780C4B1A7011E00D4B00221A70F2
:101370007B685B782821184600F0E0FA07E001233B
:10138000FB757B685B781E21184600F0D7FAFB7D61
:1013900018461837BD4680BDE0130020D813002042
:1013A000DC13002080B5ADF5805D84B000AF07F19F
:1013B000100343F80C0C07F11003222203F8082C49
:1013C00007F11003FF2203F8072C022307F58052D0
:1013D00002F10F02137007F1100353F80C3C0133B4
:1013E0001B78F12B40D107F1100353F80C3C02336A
:1013F0001B783D2B38D107F11003F12203F8062C9E
:1014000007F110033D2203F8052C07F11003022217
:1014100003F8042C07F11003552203F8032C07F1FD
:101420001003662203F8022C07F11003022283F84E
:10143000FD2F434B22221A70414BF1229A70404BF0
:101440003D22DA703E4B02221A713D4B55225A71F1
:101450003B4B66229A713A4B03F5805302225A7134
:10146000374800F0FDF965E007F1100353F80C3C34
:1014700001331B78F52B4FD107F1100353F80C3CC7
:1014800002331B783D2B47D107F11003F52203F8F7
:10149000062C07F110033D2203F8052C07F1100379
:1014A000022203F8042C07F11003772203F8032C1F
:1014B00007F11003882203F8022C07F11003992288
:1014C00003F8012C07F11003AA221A7007F1100388
:1014D000042283F8FD2F1A4B22221A70184BF12296
:1014E0009A70174B3D22DA70154B02221A71144B79
:1014F00077225A71124B88229A71114B9922DA7114
:101500000F4BAA221A720E4B03F5805304225A7114
:101510000B4800F0A5F90DE007F1100313F8083CA3
:1015200007F5805202F10F0212781146184600F0BA
:1015300005FA00BF00BF07F580571037BD4680BDD4
:10154000E013002080B584B000AF78600123FB7306
:101550007B6802331B78012B04D07B6802331B7835
:10156000032B19D17B689A78124B1A707B685A78D2
:10157000114B1A707B6802331B785AB20E4B5A70AB
:101580000D4B00221A710C4B03F5805300225A7147
:10159000094800F065F908E07B6801331B78FA7BA5
:1015A0001146184600F0CAF900BF00BF1037BD460B
:1015B00080BD00BFD5130020EC23002080B584B08F
:1015C00000AF78603960814A3B6813600023FB728A
:1015D0003B685B78102B0FD03B685B78222B0BD0DD
:1015E0003B685B782E2B07D03B685B78272B03D0BA
:1015F0003B685B783E2B05D10123FB72FB7A002B05
:101600000AD1AEE01423BB723B685B78BA7A11460C
:10161000184600F093F9D5E03B685B78102B03D1B6
:101620006B4B01221A709CE03B685B78222B04D143
:101630003B681846FFF7B6FE93E03B685B78272BC4
:101640002BD1642332226349634802F070FE3B6869
:101650005A78624B1A700023FB600DE0FB6802337E
:101660003A68D35C59B25D4AFB68134402330A46B8
:101670001A70FB680133FB60FB68012BEEDD574BF2
:1016800002221A71554B03F5805300225A714F4BB9
:101690001B681846FFF710FE63E03B685B782E2B53
:1016A0001ED14F4B1B78DBB2012B19D14D4B1B7850
:1016B000DBB2032B14D1642332224B49464802F09B
:1016C00036FE642332224949434802F030FE3A682C
:1016D0003B681B789BB21946104600F097F840E033
:1016E0003B685B782E2B1CD13D4B1B78DBB2002B6B
:1016F00017D13C4B1B78DBB2032B12D1642332226F
:101700003B49354802F013FE6423322239493248FE
:1017100002F00DFE3B685B780A21184600F00EF9D6
:101720001FE03B685B782E2B0BD12E4B1B78DBB276
:10173000002B06D13B685B780F21184600F0FEF8BD
:101740000FE03B685B783E2B0BD1642332222A49A1
:10175000214802F0ECFD6423322228491E4802F0A1
:10176000E6FD1B4B1B78DBB2012B2BD13B685B7872
:10177000102B14D13B689B78012B10D164233222AB
:101780001F49154802F0D3FD642332221D49124837
:1017900002F0CDFD3B681846FFF7D4FE12E03B682F
:1017A0005B78102B08D13B689B78032B04D13B68F6
:1017B0001846FFF7C7FE05E06423322212490648A7
:1017C00002F0B5FD1037BD4680BD00BFE823002004
:1017D000D6130020BC69000840440020E01300201C
:1017E000D4130020D5130020EC690008086A000813
:1017F000246A0008446A0008606A0008886A0008D1
:10180000AC6A0008CC6A0008EC6A000880B584B0B5
:1018100000AF78600B467B800423FB730F4B2E22B6
:101820001A707B6802331B781B025AB20B4B9A70FA
:101830007B6803331B785AB2084BDA70074B0222DD
:101840001A71064B03F5805300225A71034800F0C9
:1018500007F800BF1037BD4680BD00BFE013002071
:1018600080B584B000AF78607B681A797B6803F537
:1018700080535B791344DBB20233FB737B681B78C4
:101880004033DAB22C4B5A700223BB737B6893F956
:101890000130B3F1FF3F0DD0FB7B0133FB737B685D
:1018A00093F90110BB7B5A1CBA731A46C9B2224B7A
:1018B000995415E00223BB730CE0BB7B023B7A68B2
:1018C000134493F90220BB7BD1B21B4AD154BB7B9A
:1018D0000133BB737B681B795A1CBB7B9A42ECDAE1
:1018E000BB7B7B730DE0BA7B7B7BD31A7A68134496
:1018F00093F90520BB7BD1B20F4AD154BB7B013396
:10190000BB73BA7B7B6803F580535B7919467B7B9D
:101910000B449A42E7DB084AFB7B1370FB7B064AC9
:1019200002F58052136004490020FFF7FFF900BF61
:101930001037BD4680BD00BFF433002080B5ADF543
:10194000805D84B000AF024607F1100303F8092C54
:1019500007F110030A4603F80A2C07F110030422CA
:1019600003F8042C07F110037F2203F8032C07F17E
:1019700010031A4607F1100313F8093C02F8023C61
:1019800007F110031A4607F1100313F80A3C02F896
:10199000013C07F110031A460423C2F8FC3F07F18B
:1019A0001003043B19460020FFF7C0F900BF07F5FC
:1019B00080571037BD4680BD80B582B000AF7860DB
:1019C0007B681B68044A934201D100F0C1F900BF53
:1019D0000837BD4680BD00BF0000014080B400AFA5
:1019E00072B600BFFEE7000080B582B000AF0023F2
:1019F0007B60124B5B6C114A43F4804353640F4B82
:101A00005B6C03F480437B607B6800233B600B4B83
:101A10001B6C0A4A43F080531364084B1B6C03F0A1
:101A200080533B603B6800220F216FF0010001F002
:101A3000FFF800BF0837BD4680BD00BF0038024038
:101A400080B58CB000AF78600023BB6200237B625E
:101A50000023BB602E4B5B6C2D4A43F001035364A3
:101A60002B4B5B6C03F00103BB60BB6807F10C02FE
:101A700007F110031146184601F05EFC01F048FC26
:101A8000B862BB6A234AA2FB03239B0C013B7B6227
:101A9000214B224A1A60204B40F2E732DA601E4A9C
:101AA0007B6A53601C4B00221A611B4B00229A6018
:101AB000194B00229A61184802F03EF9034687F854
:101AC0002F3097F82F30002B1BD1134802F08EF9DE
:101AD000034687F82F3097F82F30002B11D11920AB
:101AE00001F0C2F87B680F2B08D800227968192012
:101AF00001F09EF80A4A7B68136002E0012387F830
:101B00002F3097F82F3018463037BD4680BD00BFC4
:101B10000038024083DE1B43F843002000000140F0
:101B20000C00002080B400AFFEE780B400AFFEE7F9
:101B300080B400AFFEE780B400AFFEE780B400AF32
:101B4000FEE780B400AF00BFBD465DF8047B704780
:101B500080B500AF024800F083FD00BF80BD00BF2C
:101B60008400002080B500AF024800F079FD00BF7E
:101B700080BD00BF8400002080B500AF024802F0A5
:101B8000A5F900BF80BD00BFF843002080B500AFBD
:101B9000024802F05FFC00BF80BD00BF404400204F
:101BA00080B400AF064BD3F88830054A43F4700385
:101BB000C2F8883000BFBD465DF8047B704700BFA7
:101BC00000ED00E080B500AF114B124A1A60104BD7
:101BD0004FF4E1325A600E4B00229A600C4B002207
:101BE000DA600B4B00221A61094B0C225A61084B38
:101BF00000229A61064B0022DA61054802F04AFB96
:101C00000346002B01D0FFF7E9FE00BF80BD00BFF7
:101C1000404400200044004080B58AB000AF7860A6
:101C200007F1140300221A605A609A60DA601A61A0
:101C30007B681B681D4A934233D100233B611C4BD8
:101C40001B6C1B4A43F400331364194B1B6C03F4E5
:101C500000333B613B690023FB60154B1B6B144A4F
:101C600043F001031363124B1B6B03F00103FB6092
:101C7000FB680C237B610223BB610023FB61032310
:101C80003B6207237B6207F114031946094801F000
:101C90008BF800220521262000F0CAFF262000F044
:101CA000E3FF00BF2837BD4680BD00BF00440040B1
:101CB0000038024000000240DFF834D00D480E49E1
:101CC0000E4A002302E0D458C4500433C4188C4296
:101CD000F9D30B4A0B4C002301E013600432A242FB
:101CE000FBD3FFF75DFF04F0BFFDFEF767FD704714
:101CF000000002200000002068000020306B000877
:101D0000680000201C830020FEE7000080B500AFC3
:101D10000E4B1B680D4A43F4007313600B4B1B689A
:101D20000A4A43F480631360084B1B68074A43F474
:101D300080731360032000F070FF0F20FFF780FE18
:101D4000FFF752FE0023184680BD00BF003C024052
:101D500080B400AF064B1B781A46064B1B68134431
:101D6000044A136000BFBD465DF8047B704700BFA6
:101D7000100000208444002080B400AF034B1B6897
:101D80001846BD465DF8047B704700BF84440020C0
:101D900080B584B000AF78607B68002B01D101234F
:101DA000EDE07B6893F82030DBB2002B02D178683D
:101DB000FEF700FC7B681B681A687B681B6842F0B2
:101DC00001021A60FFF7D8FFF86012E0FFF7D4FFB6
:101DD0000246FB68D31A0A2B0BD97B685B6A43F473
:101DE00000327B685A627B68052283F82020012339
:101DF000C5E07B681B685B6803F00103002BE5D03E
:101E00007B681B681A687B681B6822F002021A60F4
:101E1000FFF7B2FFF86012E0FFF7AEFF0246FB6883
:101E2000D31A0A2B0BD97B685B6A43F400327B68B8
:101E30005A627B68052283F8202001239FE07B689B
:101E40001B685B6803F00203002BE5D17B681B7EF7
:101E5000012B08D17B681B681A687B681B6842F0FD
:101E600080021A6007E07B681B681A687B681B6841
:101E700022F080021A607B685B7E012B08D17B68B0
:101E80001B681A687B681B6842F040021A6007E012
:101E90007B681B681A687B681B6822F040021A6026
:101EA0007B689B7E012B08D17B681B681A687B6866
:101EB0001B6842F020021A6007E07B681B681A6802
:101EC0007B681B6822F020021A607B68DB7E012B96
:101ED00008D17B681B681A687B681B6822F01002B7
:101EE0001A6007E07B681B681A687B681B6842F011
:101EF00010021A607B681B7F012B08D17B681B686E
:101F00001A687B681B6842F008021A6007E07B6869
:101F10001B681A687B681B6822F008021A607B68DD
:101F20005B7F012B08D17B681B681A687B681B6884
:101F300042F004021A6007E07B681B681A687B683D
:101F40001B6822F004021A607B689A687B68DB6871
:101F50001A437B681B691A437B685B6942EA030189
:101F60007B685B685A1E7B681B680A43DA617B6882
:101F700000225A627B68012283F820200023184641
:101F80001037BD4680BD000080B487B000AF7860D8
:101F900039607B681B687B617B6893F82030FB7439
:101FA000FB7C012B03D0FB7C022B40F0BE80654BF9
:101FB0007B617B69D3F8003243F001027B69C3F88F
:101FC00000227B69D3F8003223F47C527B69C3F88A
:101FD00000227B69D3F800223B685B6A1B021A432C
:101FE0007B69C3F800223B685B6903F01F03012291
:101FF00002FA03F3FB607B69D3F81C22FB68DB4326
:102000001A407B69C3F81C223B68DB69002B23D193
:102010007B69D3F80C22FB68DB431A407B69C3F869
:102020000C223B68DB6819043B685B689BB23A682A
:10203000526919437B69483243F832103B689B6808
:1020400019043B681B689AB23B685B690A4379696B
:102050004833DB000B445A603B68DB69012B22D11B
:102060007B69D3F80C22FB681A437B69C3F80C2206
:102070003B681B6819043B685B689BB23A6852690D
:1020800019437B69483243F832103B689B68190456
:102090003B68DB689AB23B685B690A4379694833FD
:1020A000DB000B445A603B689B69002B09D17B69BC
:1020B000D3F80422FB68DB431A407B69C3F804228F
:1020C00007E07B69D3F80422FB681A437B69C3F8F5
:1020D00004223B681B69002B09D17B69D3F81422C9
:1020E000FB68DB431A407B69C3F8142207E07B6975
:1020F000D3F81422FB681A437B69C3F814223B68A7
:102100001B6A012B07D17B69D3F81C22FB681A4399
:102110007B69C3F81C227B69D3F8003223F00102EB
:102120007B69C3F80022002306E07B685B6A43F406
:1021300080227B685A62012318461C37BD465DF831
:10214000047B70470064004080B584B000AF7860C5
:102150007B6893F82030DBB2012B2ED17B68022202
:1021600083F820207B681B681A687B681B6822F054
:1021700001021A60FFF700FEF86012E0FFF7FCFDB5
:102180000246FB68D31A0A2B0BD97B685B6A43F4BF
:1021900000327B685A627B68052283F82020012385
:1021A00012E07B681B685B6803F00103002BE5D13C
:1021B0007B6800225A62002306E07B685B6A43F476
:1021C00000227B685A62012318461037BD4680BD45
:1021D00080B489B000AFF860B9607A603B60FB689A
:1021E00093F82030FB77FB681B689B68BB61FB7F23
:1021F000012B03D0FB7F022B40F0B880BB6903F0BA
:102200008063002B0AD1BB6903F00063002B05D16A
:10221000BB6903F08053002B00F0A080BB691B0E4C
:1022200003F003037B617B69022B07D9FB685B6AC0
:1022300043F40002FB685A6201239EE001227B699D
:102240009A403B681A60BB689B68002B0DD1BB6845
:102250001B685A05BB68DB68F96809681A437B6923
:1022600018331B010B441A600FE0BB685B68DA008F
:10227000BB689B681A43BB68DB68F96809681A4346
:102280007B6918331B010B441A60FB681968BB6833
:102290001A697B6918331B010B4404331A60BB684D
:1022A0001B7D012B11D1FB681A687B6918331B0158
:1022B000134404331B68FA68116843F480727B6925
:1022C00018331B010B4404331A607B6807331B78F7
:1022D0001A067B6806331B781B041A437B68053398
:1022E0001B781B0213437A68043212781046FA688E
:1022F000116843EA00027B691B010B4403F5C673B6
:102300001A607B6803331B781A067B6802331B78DC
:102310001B041A437B6801331B781B0213437A6842
:1023200012781046FA68116843EA00027B691B01C3
:102330000B4403F5C4731A60FB681A687B69183391
:102340001B0113441B68FA68116843F001027B69A2
:1023500018331B010B441A6000230EE0FB685B6A14
:1023600043F40012FB685A62012306E0FB685B6AD3
:1023700043F48022FB685A62012318462437BD4685
:102380005DF8047B704780B485B000AF78600023AF
:10239000FB607B6893F82030FB72FB7A012B02D044
:1023A000FB7A022B1DD17B681B689B6803F080635E
:1023B000002B02D0FB680133FB607B681B689B68C5
:1023C00003F00063002B02D0FB680133FB607B68E5
:1023D0001B689B6803F08053002B02D0FB6801331D
:1023E000FB60FB6818461437BD465DF8047B7047F8
:1023F00080B487B000AFF860B9607A603B60FB687A
:1024000093F82030FB75FB7D012B03D0FB7D022B65
:1024100040F0F380BB68002B0ED1FB681B68DB68C3
:1024200003F00303002B16D1FB685B6A43F4001230
:10243000FB685A620123E7E0FB681B681B6903F035
:102440000303002B07D1FB685B6A43F40012FB68AF
:102450005A620123D8E0FB681A68BB681B331B0172
:1024600013441B6803F004027B689A607B689B68D6
:10247000002B0CD1FB681A68BB681B331B0113448B
:102480001B685B0DC3F30A027B681A600BE0FB68F4
:102490001A68BB681B331B0113441B68DB0823F05D
:1024A00060427B685A60FB681A68BB681B331B017B
:1024B00013441B6803F002027B68DA60FB681A6849
:1024C000BB681B331B01134404331B6803F00F026A
:1024D0007B681A61FB681A68BB681B331B011344D5
:1024E00004331B681B0ADAB27B689A61FB681A68BE
:1024F000BB681B331B01134404331B681B0C9AB2CB
:102500007B685A61FB681A68BB681B01134403F5BA
:10251000DC731B68DAB23B681A70FB681A68BB6828
:102520001B01134403F5DC731B681A0A3B68013373
:10253000D2B21A70FB681A68BB681B01134403F51A
:10254000DC731B681A0C3B680233D2B21A70FB684A
:102550001A68BB681B01134403F5DC731B681A0E71
:102560003B680333D2B21A70FB681A68BB681B0160
:10257000134403F5DE731A683B680433D2B21A7051
:10258000FB681A68BB681B01134403F5DE731B6804
:102590001A0A3B680533D2B21A70FB681A68BB6826
:1025A0001B01134403F5DE731B681A0C3B680633EA
:1025B000D2B21A70FB681A68BB681B01134403F59A
:1025C000DE731B681A0E3B680733D2B21A70BB6801
:1025D000002B08D1FB681B68DA68FB681B6842F0B7
:1025E0002002DA6007E0FB681B681A69FB681B6859
:1025F00042F020021A61002306E0FB685B6A43F4A4
:102600008022FB685A62012318461C37BD465DF8DC
:10261000047B704780B485B000AF786039607B6818
:1026200093F82030FB73FB7B012B02D0FB7B022B4A
:1026300009D17B681B6859697B681B683A680A4343
:102640005A61002306E07B685B6A43F480227B6862
:102650005A62012318461437BD465DF8047B704763
:1026600080B58AB000AF786000237B627B681B680E
:102670005B693B627B681B685B68FB617B681B680E
:102680009B68BB617B681B68DB687B617B681B6840
:102690001B693B617B681B689B69FB603B6A03F0BD
:1026A0000103002B7CD0BB6903F00103002B23D076
:1026B0007B681B6801229A60BB6903F00203002B50
:1026C00003D0786800F083F916E0BB6903F00403D7
:1026D000002B04D07B6A43F400637B620CE0BB698F
:1026E00003F00803002B04D07B6A43F480537B6221
:1026F00002E0786800F089F9BB6903F48073002B6D
:1027000024D07B681B684FF480729A60BB6903F425
:102710000073002B03D0786800F063F916E0BB6902
:1027200003F48063002B04D07B6A43F400537B6284
:102730000CE0BB6903F40063002B04D07B6A43F414
:1027400080437B6202E0786800F069F9BB6903F4BA
:102750008033002B24D07B681B684FF480329A6052
:10276000BB6903F40033002B03D0786800F043F911
:1027700016E0BB6903F48023002B04D07B6A43F48A
:1027800000437B620CE0BB6903F40023002B04D000
:102790007B6A43F480337B6202E0786800F049F999
:1027A0003B6A03F00803002B0CD07B6903F0100395
:1027B000002B07D07B6A43F400737B627B681B6845
:1027C0001022DA603B6A03F00403002B0BD07B6914
:1027D00003F00803002B06D07B681B680822DA6030
:1027E000786800F030F93B6A03F00203002B09D04F
:1027F0007B681B68DB6803F00303002B02D078685A
:10280000FEF734F93B6A03F04003002B0CD03B6920
:1028100003F01003002B07D07B6A43F480637B62D4
:102820007B681B6810221A613B6A03F02003002BAF
:102830000BD03B6903F00803002B06D07B681B68B4
:1028400008221A61786800F012F93B6A03F010035D
:10285000002B09D07B681B681B6903F00303002B66
:1028600002D0786800F0F9F83B6A03F40033002BDB
:102870000BD0FB6903F01003002B06D07B681B68AC
:1028800010225A60786800F0FCF83B6A03F4803349
:10289000002B0BD0FB6903F00803002B06D07B68EC
:1028A0001B6808225A60786800F0F5F83B6A03F468
:1028B0000043002B7BD0FB6903F00403002B72D094
:1028C0003B6A03F48073002B08D0FB6803F001031C
:1028D000002B03D07B6A43F001037B623B6A03F465
:1028E0000073002B08D0FB6803F00203002B03D019
:1028F0007B6A43F002037B623B6A03F48063002B34
:1029000008D0FB6803F00403002B03D07B6A43F07C
:1029100004037B623B6A03F40063002B43D0FB6833
:1029200003F07003002B3ED0FB6803F07003602BB4
:102930002BD0602B2ED8502B22D0502B2AD8402BB6
:1029400019D0402B26D8302B10D0302B22D8102B6A
:1029500002D0202B05D01DE07B6A43F008037B6288
:1029600019E07B6A43F010037B6214E07B6A43F05A
:1029700020037B620FE07B6A43F040037B620AE046
:102980007B6A43F080037B6205E07B6A43F48073DB
:102990007B6200E000BF7B681B689A697B681B68EC
:1029A00022F070029A617B681B6804225A607B6A7D
:1029B000002B08D07B685A6A7B6A1A437B685A628C
:1029C000786800F072F800BF2837BD4680BD80B43B
:1029D00083B000AF786000BF0C37BD465DF8047B64
:1029E000704780B483B000AF786000BF0C37BD463D
:1029F0005DF8047B704780B483B000AF786000BF9F
:102A00000C37BD465DF8047B704780B483B000AFDF
:102A1000786000BF0C37BD465DF8047B704780B41A
:102A200083B000AF786000BF0C37BD465DF8047B13
:102A3000704780B483B000AF786000BF0C37BD46EC
:102A40005DF8047B704780B483B000AF786000BF4E
:102A50000C37BD465DF8047B704780B483B000AF8F
:102A6000786000BF0C37BD465DF8047B704780B4CA
:102A700083B000AF786000BF0C37BD465DF8047BC3
:102A8000704780B483B000AF786000BF0C37BD469C
:102A90005DF8047B704780B483B000AF786000BFFE
:102AA0000C37BD465DF8047B704780B483B000AF3F
:102AB000786000BF0C37BD465DF8047B70470000AE
:102AC00080B485B000AF78607B6803F00703FB60DB
:102AD0000C4BDB68BB60BA684FF6FF031340BB606A
:102AE000FB681A02BB68134343F0BF6343F400332F
:102AF000BB60044ABB68D36000BF1437BD465DF8B5
:102B0000047B704700ED00E080B400AF044BDB684D
:102B10001B0A03F007031846BD465DF8047B7047A7
:102B200000ED00E080B483B000AF0346FB7197F97D
:102B30000730002B0BDBFB7903F01F02074997F9E5
:102B400007305B09012000FA02F241F8232000BFA0
:102B50000C37BD465DF8047B704700BF00E100E024
:102B600080B483B000AF03463960FB7197F907303A
:102B7000002B0ADB3B68DAB20C4997F907301201E7
:102B8000D2B20B4483F800230AE03B68DAB208496A
:102B9000FB7903F00F03043B1201D2B20B441A7607
:102BA00000BF0C37BD465DF8047B704700E100E0D4
:102BB00000ED00E080B489B000AFF860B9607A60E1
:102BC000FB6803F00703FB61FB69C3F10703042BF8
:102BD00028BF0423BB61FB690433062B02D9FB69C0
:102BE000033B00E000237B614FF0FF32BB6902FA38
:102BF00003F3DA43BB681A407B699A404FF0FF3118
:102C00007B6901FA03F3D9437B680B4013431846F1
:102C10002437BD465DF8047B704780B582B000AFB5
:102C200078607868FFF74CFF00BF0837BD4680BD6D
:102C300080B586B000AF0346B9607A60FB730023AD
:102C40007B61FFF761FF78617A68B9687869FFF79F
:102C5000B1FF024697F90F3011461846FFF780FF83
:102C600000BF1837BD4680BD80B582B000AF0346B7
:102C7000FB7197F907301846FFF754FF00BF08377C
:102C8000BD4680BD80B584B000AF78607B689B6D29
:102C9000FB60FFF771F8B8607B6893F83530DBB202
:102CA000022B08D07B6880225A657B68002283F85B
:102CB0003420012352E07B681B681A687B681B681C
:102CC00022F016021A607B681B685A697B681B68D1
:102CD00022F080025A617B681B6C002B03D17B6859
:102CE0009B6C002B07D07B681B681A687B681B688D
:102CF00022F008021A607B681B681A687B681B68F0
:102D000022F001021A6013E0FFF736F80246BB68B2
:102D1000D31A052B0CD97B6820225A657B680322C5
:102D200083F835207B68002283F83420032315E0E4
:102D30007B681B681B6803F00103002BE4D17B68F0
:102D4000DB6D3F229A40FB689A607B68012283F822
:102D500035207B68002283F8342000231846103782
:102D6000BD4680BD80B483B000AF78607B6893F8C7
:102D70003530DBB2022B04D07B6880225A650123F8
:102D80000CE07B68052283F835207B681B681A6895
:102D90007B681B6822F001021A60002318460C377A
:102DA000BD465DF8047B704780B489B000AF7860A1
:102DB000396000237B6100233B610023BB6100235A
:102DC000FB6165E10122FB6902FA03F37B613B6869
:102DD0001B687A6913403B613A697B699A4240F00B
:102DE00054813B685B6803F00303012B05D03B680B
:102DF0005B6803F00303022B30D17B689B68BB61E7
:102E0000FB695B00032202FA03F3DB43BA69134058
:102E1000BB613B68DA68FB695B0002FA03F3BA69DD
:102E20001343BB617B68BA699A607B685B68BB616E
:102E30000122FB6902FA03F3DB43BA691340BB6169
:102E40003B685B681B0903F00102FB6902FA03F3AC
:102E5000BA691343BB617B68BA695A603B685B68B7
:102E600003F00303032B17D07B68DB68BB61FB69AE
:102E70005B00032202FA03F3DB43BA691340BB6130
:102E80003B689A68FB695B0002FA03F3BA69134373
:102E9000BB617B68BA69DA603B685B6803F0030377
:102EA000022B23D1FB69DA087B68083253F8223001
:102EB000BB61FB6903F007039B000F2202FA03F3D7
:102EC000DB43BA691340BB613B681A69FB6903F0D5
:102ED00007039B0002FA03F3BA691343BB61FB6962
:102EE000DA087B680832B96943F822107B681B68EE
:102EF000BB61FB695B00032202FA03F3DB43BA699F
:102F00001340BB613B685B6803F00302FB695B0035
:102F100002FA03F3BA691343BB617B68BA691A60AA
:102F20003B685B6803F44033002B00F0AE80002365
:102F3000FB605D4B5B6C5C4A43F4804353645A4BCB
:102F40005B6C03F48043FB60FB68584AFB699B0899
:102F5000023352F82330BB61FB6903F003039B008B
:102F60000F2202FA03F3DB43BA691340BB617B68AB
:102F70004F4A934225D07B684E4A93421FD07B68CC
:102F80004D4A934219D07B684C4A934213D07B68D8
:102F90004B4A93420DD07B684A4A934207D07B68E4
:102FA000494A934201D106230CE007230AE0052396
:102FB00008E0042306E0032304E0022302E00123E7
:102FC00000E00023FA6902F0030292009340BA691C
:102FD0001343BB613549FB699B080233BA6941F869
:102FE00023203A4B9B68BB613B69DB43BA691340C2
:102FF000BB613B685B6803F48013002B03D0BA69A4
:103000003B691343BB61314ABB6993602F4BDB685B
:10301000BB613B69DB43BA691340BB613B685B68DA
:1030200003F40013002B03D0BA693B691343BB615F
:10303000264ABB69D360254B5B68BB613B69DB43B8
:10304000BA691340BB613B685B6803F40033002B33
:1030500003D0BA693B691343BB611C4ABB69536027
:103060001A4B1B68BB613B69DB43BA691340BB6108
:103070003B685B6803F48033002B03D0BA693B697B
:103080001343BB61114ABB691360FB690133FB61E8
:10309000FB690F2B7FF696AE00BF00BF2437BD46FD
:1030A0005DF8047B704700BF0038024000380140E3
:1030B000000002400004024000080240000C0240F0
:1030C000001002400014024000180240003C014081
:1030D00080B483B000AF78600B467B8013467B7072
:1030E0007B78002B03D07A887B689A6103E07B8829
:1030F0001A047B689A6100BF0C37BD465DF8047BFB
:103100007047000080B584B000AF786039607B689C
:10311000002B01D10123CCE0684B1B6803F00F03A7
:103120003A689A420CD9654B3A68D2B21A70634B2E
:103130001B6803F00F033A689A4201D00123B8E0FC
:103140007B681B6803F00203002B20D07B681B68A0
:1031500003F00403002B05D0594B9B68584A43F4F5
:10316000E05393607B681B6803F00803002B05D0D5
:10317000534B9B68524A43F460439360504B9B68A7
:1031800023F0F0027B689B684D4913438B607B689A
:103190001B6803F00103002B44D07B685B68012BA4
:1031A00007D1474B1B6803F40033002B19D10123CF
:1031B0007FE07B685B68022B03D07B685B68032B36
:1031C00007D13F4B1B6803F00073002B09D101238B
:1031D0006FE03B4B1B6803F00203002B01D101237E
:1031E00067E0374B9B6823F003027B685B683449D8
:1031F00013438B60FEF7C0FDF8600AE0FEF7BCFDEC
:103200000246FB68D31A41F28832934201D9032364
:103210004FE02B4B9B6803F00C027B685B689B00C4
:103220009A42EBD1254B1B6803F00F033A689A4290
:103230000CD2224B3A68D2B21A70204B1B6803F0B2
:103240000F033A689A4201D0012332E07B681B6881
:1032500003F00403002B08D0194B9B6823F4E052C1
:103260007B68DB68164913438B607B681B6803F03F
:103270000803002B09D0124B9B6823F460427B6843
:103280001B69DB000E4913438B6000F087F8024690
:103290000B4B9B681B0903F00F030A49CB5C22FA16
:1032A00003F3094A1360094B1B681846FEF7C8FB75
:1032B000002318461037BD4680BD00BF003C0240C9
:1032C00000380240086B0008080000200C000020B5
:1032D00080B400AF034B1B681846BD465DF8047B05
:1032E000704700BF0800002080B500AFFFF7F0FF77
:1032F0000246054B9B689B0A03F007030349CB5C1E
:1033000022FA03F3184680BD00380240186B00080B
:1033100080B500AFFFF7DCFF0246054B9B685B0BF7
:1033200003F007030349CB5C22FA03F3184680BD80
:1033300000380240186B000880B483B000AF78609A
:1033400039607B680F221A60124B9B6803F00302FE
:103350007B685A600F4B9B6803F0F0027B689A60B1
:103360000C4B9B6803F4E0527B68DA60094B9B6866
:10337000DB0803F4E0527B681A61074B1B6803F01B
:103380000F023B681A6000BF0C37BD465DF8047B36
:10339000704700BF00380240003C02402DE9B04FAA
:1033A000AEB000AF0023C7F8AC300023C7F8B4308C
:1033B0000023C7F8A8300023C7F8A4300023C7F8BB
:1033C000B030CB4B9B6803F00C030C2B00F2068251
:1033D00001A252F823F000BF0D340008DD370008C9
:1033E000DD370008DD37000815340008DD37000838
:1033F000DD370008DD3700081D340008DD37000820
:10340000DD370008DD3700080D360008B94BC7F876
:10341000B030E7E1B84BC7F8B030E3E1B44B5B68DC
:1034200003F03F03C7F8AC30B14B5B6803F4800393
:10343000002B71D0AE4B5B689B090022C7F8983017
:10344000C7F89C20D7F89830C3F30803C7F890302A
:103450000023C7F89430D7E9244522462B464FF085
:1034600000004FF00001590141EAD26150010246CB
:103470000B462146511A3964294663EB01037B64EC
:103480004FF000024FF00003D7E9108949468B0145
:10349000414643EA916341468A014146511AB96364
:1034A000494663EB0103FB634FF000024FF000035A
:1034B000D7E90E894946CB00414643EA517341465C
:1034C000CA0010461946034622469B183B632B460A
:1034D0000A4642EB03037B634FF000024FF0000308
:1034E000D7E90C4529464B02214643EAD1532146F0
:1034F0004A0210461946D7F8AC300022C7F8883087
:10350000C7F88C20D7E92223FCF782FE02460B463F
:103510001346C7F8B43067E0754B5B689B0900221F
:10352000C7F88030C7F88420D7F88030C3F3080389
:10353000BB670023FB67D7E91E4522462B464FF0A9
:1035400000004FF00001590141EAD26150010246EA
:103550000B462146511AB962294663EB0103FB620F
:103560004FF000024FF00003D7E90A8949468B016A
:10357000414643EA916341468A014146B2EB010A62
:10358000494663EB010B4FF000024FF000034FEA96
:10359000CB0343EA5A734FEACA0292469B4623463C
:1035A0001AEB03033B622B464BEB03037B624FF0AA
:1035B00000024FF00003D7E9084529468B02214657
:1035C00043EA915321468A0210461946D7F8AC3097
:1035D00000223B677A67D7E91C23FCF719FE0246F5
:1035E0000B461346C7F8B430414B5B681B0C03F025
:1035F000030301335B00C7F8A830D7F8B420D7F82D
:10360000A830B2FBF3F3C7F8B030EBE0384B5B689F
:1036100003F03F03C7F8AC30354B5B6803F480031D
:10362000002B6BD0324B5B689B090022BB66FA66AD
:10363000BB6EC3F308033B6600237B66D7E91845DE
:1036400022462B464FF000004FF00001590141EA9D
:10365000D261500102460B462146511AB9612946F2
:1036600063EB0103FB614FF000024FF00003D7E969
:1036700006AB59468B01514643EA916351468A0194
:103680005146B2EB0108594663EB01094FF00002C5
:103690004FF000034FEAC90343EA58734FEAC802E8
:1036A00090469946234618EB03033B612B4649EBB2
:1036B00003037B614FF000024FF00003D7E904459C
:1036C00029464B02214643EAD15321464A0210467D
:1036D0001946D7F8AC300022BB65FA65D7E9162346
:1036E000FCF796FD02460B461346C7F8B43065E07A
:1036F000003802400024F40000127A003D4B5B6861
:103700009B09002218461146C0F308033B650023BD
:103710007B65D7E9148942464B464FF000004FF0D5
:103720000001590141EAD261500102460B4641466F
:10373000511AB960494663EB0103FB604FF0000288
:103740004FF00003D7E902AB59468B01514643EADB
:10375000916351468A015146541A594663EB01055B
:103760004FF000024FF00003EB0043EA5473E20015
:1037700014461D464346E3183B604B4645EB0303A6
:103780007B604FF000024FF00003D7E90045294667
:103790008B02214643EA915321468A02104619467C
:1037A000D7F8AC300022BB64FA64D7E91223FCF7E7
:1037B0002FFD02460B461346C7F8B4300D4B5B682D
:1037C0001B0F03F00703C7F8A430D7F8B420D7F8CD
:1037D000A430B2FBF3F3C7F8B03003E0064BC7F8F0
:1037E000B03000BFD7F8B0301846B837BD46BDE896
:1037F000B08F00BF003802400024F40080B586B0CE
:1038000000AF78607B68002B01D101238DE27B68DB
:103810001B6803F00103002B00F08380944B9B682E
:1038200003F00C03042B19D0914B9B6803F00C039D
:10383000082B06D18E4B5B6803F48003B3F5800F31
:103840000CD08B4B9B6803F00C030C2B12D1884BD4
:103850005B6803F48003B3F5800F0BD1844B1B68C6
:1038600003F40033002B5BD07B685B68002B57D1DF
:1038700001235AE27B685B68B3F5803F06D17C4B3D
:103880001B687B4A43F4803313601DE07B685B68F0
:10389000B3F5A02F0CD1764B1B68754A43F48023F7
:1038A0001360734B1B68724A43F4803313600BE060
:1038B0006F4B1B686E4A23F4803313606C4B1B689C
:1038C0006B4A23F4802313607B685B68002B13D062
:1038D000FEF752FA386108E0FEF74EFA02463B69FD
:1038E000D31A642B01D903231FE2614B1B6803F435
:1038F0000033002BF0D014E0FEF73EFA386108E008
:10390000FEF73AFA02463B69D31A642B01D9032326
:103910000BE2574B1B6803F40033002BF0D100E09F
:1039200000BF7B681B6803F00203002B6FD0504B75
:103930009B6803F00C03002B17D04D4B9B6803F0E2
:103940000C03082B05D14A4B5B6803F48003002B62
:103950000BD0474B9B6803F00C030C2B1CD1444B42
:103960005B6803F48003002B16D1414B1B6803F006
:103970000203002B05D07B68DB68012B01D00123FB
:10398000D3E13B4B1B6823F0F8027B681B69DB002B
:10399000374913430B603AE07B68DB68002B20D08B
:1039A000344B01221A60FEF7E7F9386108E0FEF7B0
:1039B000E3F902463B69D31A022B01D90323B4E190
:1039C0002B4B1B6803F00203002BF0D0284B1B6825
:1039D00023F0F8027B681B69DB00254913430B6069
:1039E00015E0244B00221A60FEF7C6F9386108E0A2
:1039F000FEF7C2F902463B69D31A022B01D9032311
:103A000093E11B4B1B6803F00203002BF0D17B6892
:103A10001B6803F00803002B36D07B685B69002B22
:103A200016D0154B01221A60FEF7A6F9386108E09E
:103A3000FEF7A2F902463B69D31A022B01D90323F0
:103A400073E10B4B5B6F03F00203002BF0D01BE024
:103A5000094B00221A60FEF78FF938610EE0FEF77D
:103A60008BF902463B69D31A022B07D903235CE189
:103A70000038024000004742800E47428A4B5B6F8D
:103A800003F00203002BEAD17B681B6803F00403F8
:103A9000002B00F097800023FB75834B1B6C03F019
:103AA0008053002B0FD10023BB607F4B1B6C7E4AE1
:103AB00043F0805313647C4B1B6C03F08053BB605A
:103AC000BB680123FB75794B1B6803F48073002BE3
:103AD00018D1764B1B68754A43F480731360FEF768
:103AE0004BF9386108E0FEF747F902463B69D31A03
:103AF000022B01D9032318E16C4B1B6803F480737C
:103B0000002BF0D07B689B68012B06D1664B1B6FA6
:103B1000654A43F0010313671CE07B689B68052B33
:103B20000CD1614B1B6F604A43F0040313675E4B7B
:103B30001B6F5D4A43F0010313670BE05A4B1B6F89
:103B4000594A23F001031367574B1B6F564A23F062
:103B5000040313677B689B68002B15D0FEF70CF9F4
:103B600038610AE0FEF708F902463B69D31A41F2D0
:103B70008832934201D90323D7E04B4B1B6F03F0EC
:103B80000203002BEED014E0FEF7F6F838610AE0ED
:103B9000FEF7F2F802463B69D31A41F288329342AB
:103BA00001D90323C1E0404B1B6F03F00203002B3C
:103BB000EED1FB7D012B05D13B4B1B6C3A4A23F028
:103BC000805313647B689B69002B00F0AD80364BFB
:103BD0009B6803F00C03082B60D07B689B69022B69
:103BE00045D1334B00221A60FEF7C6F8386108E071
:103BF000FEF7C2F802463B69D31A022B01D9032310
:103C000093E0294B1B6803F00073002BF0D17B6815
:103C1000DA697B681B6A1A437B685B6A9B011A43FB
:103C20007B689B6A5B08013B1B041A437B68DB6A69
:103C30001B061A437B681B6B1B071B4913434B6016
:103C40001B4B01221A60FEF797F8386108E0FEF777
:103C500093F802463B69D31A022B01D9032364E08F
:103C6000114B1B6803F00073002BF0D05CE0104B8D
:103C700000221A60FEF780F8386108E0FEF77CF851
:103C800002463B69D31A022B01D903234DE0064BB0
:103C90001B6803F00073002BF0D145E07B689B6943
:103CA000012B07D1012340E00038024000700040A2
:103CB000600047421F4B5B68FB607B689B69012B80
:103CC00030D0FB6803F480027B68DB699A4229D11B
:103CD000FB6803F03F027B681B6A9A4222D1FA68B4
:103CE00047F6C07313407A68526A9201934219D121
:103CF000FB6803F440327B689B6A5B08013B1B0452
:103D00009A420FD1FB6803F070627B68DB6A1B0686
:103D10009A4207D1FB6803F0E0427B681B6B1B07EC
:103D20009A4201D0012300E0002318461837BD460F
:103D300080BD00BF0038024080B582B000AF78601F
:103D40007B68002B01D1012341E07B6893F83D3073
:103D5000DBB2002B06D17B68002283F83C20786818
:103D600000F039F87B68022283F83D207B681A68EE
:103D70007B6804331946104600F0D8F97B680122AD
:103D800083F846207B68012283F83E207B6801226D
:103D900083F83F207B68012283F840207B68012262
:103DA00083F841207B68012283F842207B6801224E
:103DB00083F843207B68012283F844207B6801223A
:103DC00083F845207B68012283F83D2000231846B4
:103DD0000837BD4680BD80B483B000AF786000BFB7
:103DE0000C37BD465DF8047B7047000080B485B099
:103DF00000AF78607B6893F83D30DBB2012B01D0D7
:103E000001234EE07B68022283F83D207B681B681B
:103E1000DA687B681B6842F00102DA607B681B6825
:103E2000234A934222D07B681B68B3F1804F1DD098
:103E30007B681B681F4A934218D07B681B681E4A28
:103E4000934213D07B681B681C4A93420ED07B6858
:103E50001B681B4A934209D07B681B68194A93422E
:103E600004D07B681B68184A934211D17B681B6899
:103E70009B6803F00703FB60FB68062B10D07B6890
:103E80001B681A687B681B6842F001021A6007E031
:103E90007B681B681A687B681B6842F001021A6025
:103EA000002318461437BD465DF8047B704700BFF9
:103EB000000001400004004000080040000C0040E9
:103EC00000040140004001400018004080B582B06D
:103ED00000AF78607B681B681B6903F00203022B4C
:103EE00022D17B681B68DB6803F00203022B1BD125
:103EF0007B681B686FF002021A617B6801221A77E7
:103F00007B681B689B6903F00303002B03D0786870
:103F100000F0EEF805E0786800F0E0F8786800F06E
:103F2000F1F87B6800221A777B681B681B6903F035
:103F30000403042B22D17B681B68DB6803F00403B5
:103F4000042B1BD17B681B686FF004021A617B682D
:103F500002221A777B681B689B6903F44073002B6D
:103F600003D0786800F0C4F805E0786800F0B6F88F
:103F7000786800F0C7F87B6800221A777B681B68B6
:103F80001B6903F00803082B22D17B681B68DB68E0
:103F900003F00803082B1BD17B681B686FF0080235
:103FA0001A617B6804221A777B681B68DB6903F05F
:103FB0000303002B03D0786800F09AF805E07868D6
:103FC00000F08CF8786800F09DF87B6800221A7782
:103FD0007B681B681B6903F01003102B22D17B68E0
:103FE0001B68DB6803F01003102B1BD17B681B6878
:103FF0006FF010021A617B6808221A777B681B68D1
:10400000DB6903F44073002B03D0786800F070F88C
:1040100005E0786800F062F8786800F073F87B6873
:1040200000221A777B681B681B6903F00103012BD0
:104030000ED17B681B68DB6803F00103012B07D1FD
:104040007B681B686FF001021A617868FDF7B4FCA9
:104050007B681B681B6903F08003802B0ED17B6893
:104060001B68DB6803F08003802B07D17B681B682B
:104070006FF080021A61786800F002F97B681B68B3
:104080001B6903F04003402B0ED17B681B68DB6883
:1040900003F04003402B07D17B681B686FF04002A0
:1040A0001A61786800F038F87B681B681B6903F0B8
:1040B0002003202B0ED17B681B68DB6803F02003F4
:1040C000202B07D17B681B686FF020021A6178688B
:1040D00000F0CCF800BF0837BD4680BD80B483B087
:1040E00000AF786000BF0C37BD465DF8047B7047B9
:1040F00080B483B000AF786000BF0C37BD465DF878
:10410000047B704780B483B000AF786000BF0C3789
:10411000BD465DF8047B704780B483B000AF786023
:1041200000BF0C37BD465DF8047B704780B485B096
:1041300000AF786039607B681B68FB607B68404A31
:10414000934213D07B68B3F1804F0FD07B683D4A18
:1041500093420BD07B683C4A934207D07B683B4A32
:10416000934203D07B683A4A934208D1FB6823F01C
:104170007003FB603B685B68FA681343FB607B6815
:104180002F4A93422BD07B68B3F1804F27D07B68B6
:104190002C4A934223D07B682B4A93421FD07B68E2
:1041A0002A4A93421BD07B68294A934217D07B68E6
:1041B000284A934213D07B68274A93420FD07B68EA
:1041C000264A93420BD07B68254A934207D07B68EE
:1041D000244A934203D07B68234A934208D1FB6868
:1041E00023F44073FB603B68DB68FA681343FB60B1
:1041F000FB6823F080023B685B691343FB607B68CC
:10420000FA681A603B689A687B68DA623B681A68E9
:104210007B689A627B680A4A934203D07B680C4AA7
:10422000934203D13B681A697B681A637B68012259
:104230005A6100BF1437BD465DF8047B704700BF6C
:10424000000001400004004000080040000C004055
:10425000000401400040014000440140004801408A
:1042600000180040001C00400020004080B483B0D3
:1042700000AF786000BF0C37BD465DF8047B704727
:1042800080B483B000AF786000BF0C37BD465DF8E6
:10429000047B704780B582B000AF78607B68002BEC
:1042A00001D101233FE07B6893F83D30DBB2002B66
:1042B00006D17B68002283F83C207868FDF7ACFCCF
:1042C0007B68242283F83D207B681B68DA687B6862
:1042D0001B6822F40052DA60786800F07BFD7B688E
:1042E0001B681A697B681B6822F490421A617B681C
:1042F0001B685A697B681B6822F02A025A617B6836
:104300001B68DA687B681B6842F40052DA607B68DD
:1043100000221A647B68202283F83D207B682022DB
:1043200083F83E20002318460837BD4680BD80B57F
:104330008AB002AFF860B9603B601346FB8000238F
:104340007B61FB6893F83D30DBB2202B7CD1BB68EE
:10435000002B02D0FB88002B01D1012375E0FB6804
:1043600093F83C30012B01D102236EE0FB6801225F
:1043700083F83C20FB6800221A64FB68212283F842
:104380003D20FDF7F9FC7861FB68FA889A84FB68A8
:10439000FA88DA84FB689B68B3F5805F08D1FB6814
:1043A0001B69002B04D10023FB61BB68BB6103E0E8
:1043B000BB68FB610023BB61FB68002283F83C20E3
:1043C0002AE03B6800937B6900228021F86800F0B6
:1043D000F9FA0346002B01D0032336E0FB69002BDA
:1043E0000BD1BB691B881A46FB681B68C2F3080225
:1043F0005A60BB690233BB6107E0FB691A78FB684E
:104400001B685A60FB690133FB61FB68DB8C9BB264
:10441000013B9AB2FB68DA84FB68DB8C9BB2002B11
:10442000CFD13B6800937B6900224021F86800F0FF
:10443000C9FA0346002B01D0032306E0FB682022C3
:1044400083F83D20002300E0022318462037BD46B4
:1044500080BD000080B5BAB000AF78607B681B6893
:104460001B68C7F8E4307B681B68DB68C7F8E0307E
:104470007B681B685B69C7F8DC300023C7F8D8305D
:104480000023C7F8D430D7F8E43003F00F03C7F89F
:10449000D830D7F8D830002B0FD1D7F8E43003F05C
:1044A0002003002B09D0D7F8E03003F02003002BC5
:1044B00003D0786800F0D3FB56E2D7F8D830002B51
:1044C00000F0DE80D7F8DC3003F00103002B06D1CA
:1044D000D7F8E03003F49073002B00F0D180D7F8C8
:1044E000E43003F00103002B0BD0D7F8E03003F4E5
:1044F0008073002B05D07B681B6C43F001027B6846
:104500001A64D7F8E43003F00403002B0BD0D7F87B
:10451000DC3003F00103002B05D07B681B6C43F0FB
:1045200002027B681A64D7F8E43003F00203002B20
:104530000BD0D7F8DC3003F00103002B05D07B68EB
:104540001B6C43F004027B681A64D7F8E43003F074
:104550000803002B11D0D7F8E03003F02003002B24
:1045600005D1D7F8DC3003F00103002B05D07B68C0
:104570001B6C43F008027B681A647B681B6C002B81
:1045800000F0ED81D7F8E43003F02003002B08D0D1
:10459000D7F8E03003F02003002B02D0786800F059
:1045A0005EFB7B681B685B6903F04003402B0CBF1C
:1045B00001230023DBB2C7F8D4307B681B6C03F007
:1045C0000803002B03D1D7F8D430002B4FD07868E4
:1045D00000F066FA7B681B685B6903F04003402BC0
:1045E00041D17B681B681433C7F89C30D7F89C30E6
:1045F00053E8003FC7F89830D7F8983023F04003CD
:10460000C7F8D0307B681B681433D7F8D020C7F8C0
:10461000A820C7F8A430D7F8A410D7F8A82041E8FC
:104620000023C7F8A030D7F8A030002BD9D17B6881
:104630009B6B002B13D07B689B6B7D4A1A657B6854
:104640009B6B1846FEF78EFB0346002B16D07B684B
:104650009B6B1B6D7A68926B104698470EE07868EA
:1046600000F09AF90AE0786800F096F906E07868B8
:1046700000F092F97B6800221A6470E100BF6EE1DD
:104680007B681B6B012B40F04A81D7F8E43003F0C4
:104690001003002B00F04381D7F8E03003F0100343
:1046A000002B00F03C810023BB607B681B681B680B
:1046B000BB607B681B685B68BB60BB687B681B6812
:1046C0005B6903F04003402B40F0B4807B689B6B38
:1046D0001B685B68A7F8BE30B7F8BE30002B00F04F
:1046E00040817B689B8DB7F8BE209A4280F039816B
:1046F0007B68B7F8BE20DA857B689B6BDB69B3F516
:10470000807F00F088807B681B680C33C7F8883096
:10471000D7F8883053E8003FC7F88430D7F88430A2
:1047200023F48073C7F8B8307B681B680C33D7F864
:10473000B820C7F89420C7F89030D7F89010D7F871
:10474000942041E80023C7F88C30D7F88C30002B38
:10475000D9D17B681B6814337B677B6F53E8003FBC
:104760003B673B6F23F00103C7F8B4307B681B68DD
:104770001433D7F8B420C7F88020FB67F96FD7F857
:10478000802041E80023BB67BB6F002BE1D17B6831
:104790001B6814333B663B6E53E8003FFB65FB6DC3
:1047A00023F04003C7F8B0307B681B681433D7F898
:1047B000B020FA66BB66B96EFA6E41E800237B66EC
:1047C0007B6E002BE3D17B68202283F83E207B6840
:1047D00000221A637B681B680C33FB64FB6C53E894
:1047E000003FBB64BB6C23F01003C7F8AC307B68A0
:1047F0001B680C33D7F8AC20BA657B65796DBA6D50
:1048000041E800233B653B6D002BE3D17B689B6B4C
:104810001846FEF737FA7B689A8D7B68DB8D9BB272
:10482000D31A9BB21946786800F0C0F899E000BF2F
:10483000674B00087B689A8D7B68DB8D9BB2D31A2F
:10484000A7F8CE307B68DB8D9BB2002B00F08B800D
:10485000B7F8CE30002B00F086807B681B680C33E5
:10486000BB63BB6B53E8003F7B637B6B23F49073AC
:10487000C7F8C8307B681B680C33D7F8C8207A6447
:104880003B64396C7A6C41E80023FB63FB6B002BC3
:10489000E3D17B681B6814337B627B6A53E8003F7B
:1048A0003B623B6A23F00103C7F8C4307B681B6896
:1048B0001433D7F8C4203A63FB62F96A3A6B41E8D3
:1048C0000023BB62BB6A002BE3D17B68202283F804
:1048D0003E207B6800221A637B681B680C333B61B7
:1048E0003B6953E8003FFB60FB6823F01003C7F807
:1048F000C0307B681B680C33D7F8C020FA61BB61FD
:10490000B969FA6941E800237B617B69002BE3D137
:10491000B7F8CE301946786800F048F823E0D7F8A9
:10492000E43003F08003002B09D0D7F8E03003F027
:104930008003002B03D0786800F029F914E0D7F841
:10494000E43003F04003002B0ED0D7F8E03003F042
:104950004003002B08D0786800F069F904E000BF3C
:1049600002E000BF00E000BFE837BD4680BD00BFE9
:1049700080B483B000AF786000BF0C37BD465DF8EF
:10498000047B704780B483B000AF786000BF0C3701
:10499000BD465DF8047B704780B483B000AF78609B
:1049A00000BF0C37BD465DF8047B704780B483B010
:1049B00000AF78600B467B8000BF0C37BD465DF8CA
:1049C000047B704780B590B000AFF860B9603B6081
:1049D0001346FB7150E0BB6CB3F1FF3F4CD0BB6C96
:1049E000002B07D0FDF7C8F902463B68D31ABA6C12
:1049F0009A4241D2FB681B680C33BB62BB6A53E826
:104A0000003F7B627B6A23F4D073FB63FB681B6807
:104A10000C33FA6B7A633B63396B7A6B41E80023A2
:104A2000FB62FB6A002BE5D1FB681B6814337B61DA
:104A30007B6953E8003F3B613B6923F00103BB63A3
:104A4000FB681B681433BA6B3A62FB61F9693A6A16
:104A500041E80023BB61BB69002BE5D1FB68202244
:104A600083F83D20FB68202283F83E20FB6800226B
:104A700083F83C2003230FE0FB681B681A68BB68BF
:104A80001340BA689A420CBF01230023DBB21A46D6
:104A9000FB799A429FD0002318464037BD4680BD1F
:104AA00080B495B000AF78607B681B680C337B6383
:104AB0007B6B53E8003F3B633B6B23F49073FB64D9
:104AC0007B681B680C33FA6C3A64FB63F96B3A6CD5
:104AD00041E80023BB63BB6B002BE5D17B681B68FF
:104AE00014333B623B6A53E8003FFB61FB6923F0F0
:104AF0000103BB647B681B681433BA6CFA62BB6247
:104B0000B96AFA6A41E800237B627B6A002BE5D12F
:104B10007B681B6B012B19D17B681B680C33FB6016
:104B2000FB6853E8003FBB60BB6823F010037B6465
:104B30007B681B680C337A6CBA617B617969BA69EE
:104B400041E800233B613B69002BE5D17B682022D3
:104B500083F83E207B6800221A6300BF5437BD46AD
:104B60005DF8047B704780B584B000AF78607B68E7
:104B70009B6BFB60FB680022DA85FB680022DA840D
:104B8000F868FFF709FF00BF1037BD4680BD80B44D
:104B900085B000AF78607B6893F83D30DBB2212BA5
:104BA0003ED17B689B68B3F5805F14D17B681B693D
:104BB000002B10D17B681B6AFB60FB681B881A46C0
:104BC0007B681B68C2F308025A607B681B6A9A1CE8
:104BD0007B681A6208E07B681B6A591C7A6811625C
:104BE0001A787B681B685A607B68DB8C9BB2013B40
:104BF0009BB27A681946D184002B0FD17B681B6861
:104C0000DA687B681B6822F08002DA607B681B68C8
:104C1000DA687B681B6842F04002DA60002300E03B
:104C2000022318461437BD465DF8047B704780B5F3
:104C300082B000AF78607B681B68DA687B681B68AD
:104C400022F04002DA607B68202283F83D207868F9
:104C5000FFF78EFE002318460837BD4680BD80B59D
:104C60008CB000AF78607B6893F83E30DBB2222BCB
:104C700040F0AB807B689B68B3F5805F17D17B68A1
:104C80001B69002B13D10023FB627B689B6ABB620C
:104C90007B681B685B689BB2C3F308039AB2BB6A6C
:104CA0001A807B689B6A9A1C7B689A6226E07B6804
:104CB0009B6AFB620023BB627B689B68B3F5805FE5
:104CC00007D07B689B68002B0AD17B681B69002B8F
:104CD00006D17B681B685B68DAB2FB6A1A7008E071
:104CE0007B681B685B68DBB203F07F03DAB2FB6AA8
:104CF0001A707B689B6A5A1C7B689A627B68DB8DA2
:104D00009BB2013B9BB27A681946D185002B5AD1E0
:104D10007B681B68DA687B681B6822F02002DA6017
:104D20007B681B68DA687B681B6822F48072DA6033
:104D30007B681B685A697B681B6822F001025A6114
:104D40007B68202283F83E207B681B6B012B35D1CA
:104D50007B6800221A637B681B680C337B617B696C
:104D600053E8003F3B613B6923F010037B627B68A3
:104D70001B680C337A6A3A62FB61F9693A6A41E866
:104D80000023BB61BB69002BE5D17B681B681B68F6
:104D900003F01003102B0AD10023FB607B681B6813
:104DA0001B68FB607B681B685B68FB60FB687B685B
:104DB0009B8D19467868FFF7F9FD02E07868FFF7E8
:104DC000E1FD002302E0002300E002231846303713
:104DD000BD4680BD2DE9B04FC0B000AFC7F8F400AC
:104DE000D7F8F4301B681B6923F44050D7F8F4302F
:104DF000D968D7F8F4301A6840EA01031361D7F88C
:104E0000F4309A68D7F8F4301B691A43D7F8F430B5
:104E10005B691A43D7F8F430DB691343C7F8F830FD
:104E2000D7F8F4301B68DB6823F4164121F00C013D
:104E3000D7F8F4301A68D7F8F8300B43D360D7F8B6
:104E4000F4301B685B6923F44070D7F8F43099693B
:104E5000D7F8F4301A6840EA01035361D7F8F43008
:104E60001A688F4B9A4205D0D7F8F4301A688D4BE8
:104E70009A4204D1FEF74CFAC7F8FC0003E0FEF7B3
:104E800033FAC7F8FC00D7F8F430DB69B3F5004F0C
:104E900040F00C81D7F8FC300022C7F8E830C7F8A2
:104EA000EC20D7E93A4522462B469118B9655B417B
:104EB000FB65D7E91623214612EB0108294643EB8F
:104EC00001094FF000024FF000034FEAC90343EA23
:104ED00058734FEAC80290469946234618EB0303DD
:104EE000C7F8E0302B4649EB0303C7F8E430D7F8A6
:104EF000F4305B680022C7F8D830C7F8DC20D7E967
:104F000036120B46DB183B65134642EB03037B6509
:104F1000D7E91423D7E93801FBF77AF902460B46A3
:104F2000614BA3FB02235B091C01D7F8FC30002274
:104F3000C7F8D030C7F8D420D7E9348942464B4669
:104F40009118B9645B41FB64D7E91223414612EB27
:104F5000010A494643EB010B4FF000024FF00003FA
:104F60004FEACB0343EA5A734FEACA0292469B4682
:104F700043461AEB0303C7F8C8304B464BEB030319
:104F8000C7F8CC30D7F8F4305B680022C7F8C030DF
:104F9000C7F8C420D7E930120B46DB183B64134630
:104FA00042EB03037B64D7E91023D7E93201FBF717
:104FB0002FF902460B4611463B4BA3FB01235B092D
:104FC000642202FB03F3CB1ADB0003F13202364BFF
:104FD000A3FB02235B095B0003F4F8731C44D7F8BE
:104FE000FC300022C7F8B830C7F8BC20D7E92E89BA
:104FF00042464B469118B9635B41FB63D7E90E23E8
:1050000041465118396349464B417B634FF00002DA
:105010004FF00003D7E90CAB5946CB00514643EAA9
:1050200051735146CA0010461946034642469B1822
:10503000C7F8B0304B460A4642EB0303C7F8B4301A
:10504000D7F8F4305B680022C7F8A830C7F8AC2066
:10505000D7E92A120B46DB18BB62134642EB030367
:10506000FB62D7E90A23D7E92C01FBF7D1F8024606
:105070000B460D4BA3FB02135B09642101FB03F3F9
:10508000D31ADB003233084AA2FB03235B0903F087
:105090000702D7F8F4301B6822449A6006E100BF8B
:1050A00000100140001401401F85EB51D7F8FC307F
:1050B0000022C7F8A030C7F8A420D7E928894246C3
:1050C0004B46911839625B417B62D7E90823414620
:1050D0005418494643EB01054FF000024FF000031E
:1050E000EB0043EA5473E20014461D464346E318BE
:1050F000C7F898304B4645EB0303C7F89C30D7F808
:10510000F4305B680022C7F89030C7F894204FF065
:1051100000024FF00003D7E9244529468B002146C1
:1051200043EA917321468A00D7E92601FBF770F81C
:1051300002460B46604BA3FB02235B091C01D7F818
:10514000FC300022C7F88830C7F88C20D7E92289C4
:1051500042464B469118B9615B41FB61D7E9062392
:1051600041465118396149464B417B614FF000027D
:105170004FF00003D7E904AB5946CB00514643EA50
:1051800051735146CA0010461946034642469B18C1
:10519000C7F880304B460A4642EB0303C7F8843019
:1051A000D7F8F4305B680022BB67FA674FF0000263
:1051B0004FF00003D7E91E8949468B00414643EA78
:1051C000917341468A00D7E92001FBF721F8024696
:1051D0000B461146384BA3FB01235B09642202FBFB
:1051E00003F3CB1A1B013233334AA2FB03235B09BF
:1051F00003F0F0031C44D7F8FC3000223B677A67C9
:10520000D7E91C8942464B469118B9605B41FB6067
:10521000D7E9022341465118396049464B417B602A
:105220004FF000024FF00003D7E900AB5946CB0026
:10523000514643EA51735146CA0010461946034687
:1052400042469B18BB664B460A4642EB0303FB668D
:10525000D7F8F4305B6800223B667A664FF00002B4
:105260004FF00003D7E9188949468B00414643EACD
:10527000917341468A00D7E91A01FAF7C9FF02463D
:105280000B460D4BA3FB02135B09642101FB03F3E7
:10529000D31A1B013233084AA2FB03235B0903F034
:1052A0000F02D7F8F4301B6822449A6000BF07F55C
:1052B0008077BD46BDE8B08F1F85EB5180B485B0C7
:1052C00000AF0346FB800023FB60B7F90630842B58
:1052D00005D0B7F90620FB6813440333FB60FB6875
:1052E00018461437BD465DF8047B704780B500AFA3
:1052F00000F0F6FA0023184680BDF0B589B004AF7F
:10530000786039607B685B69002B20D07B689B6983
:10531000002B1CD07B685C687B681D687B681E69FD
:105320007B68B3F908301846FFF7C8FF01467B6871
:105330005B697A6892690292019300913B683246F8
:105340002946204600F0EDF80346FB601CE07B6830
:105350005C687B681D687B681B699EB27B68B3F9DB
:1053600008301846FFF7AAFF024607F10C03019325
:1053700000923B6832462946204600F02FF903464A
:10538000012B01D0002300E0FB6818461437BD460E
:10539000F0BD80B584B000AF78607B68FB60FB68CF
:1053A000002B01D0FB6800E00123184600F064FAEE
:1053B000002318461037BD4680BD80B483B000AFCF
:1053C00078607B6803F108027B685A607B684FF065
:1053D000FF329A607B6803F108027B68DA607B68C1
:1053E00003F108027B681A617B6800221A6000BF23
:1053F0000C37BD465DF8047B704780B483B000AFC6
:1054000078607B6800221A6100BF0C37BD465DF8EA
:10541000047B704780B485B000AF786039607B68EA
:105420005B68FB603B68FA685A60FB689A683B6897
:105430009A60FB689B683A685A60FB683A689A60B1
:105440003B687A681A617B681B685A1C7B681A6023
:1054500000BF1437BD465DF8047B704780B485B04B
:1054600000AF786039603B681B68BB60BB68B3F114
:10547000FF3F03D17B681B69FB600CE07B6808334E
:10548000FB6002E0FB685B68FB60FB685B681B68B5
:10549000BA689A42F6D2FB685A683B685A603B6821
:1054A0005B683A689A603B68FA689A60FB683A6899
:1054B0005A603B687A681A617B681B685A1C7B6873
:1054C0001A6000BF1437BD465DF8047B704780B496
:1054D00085B000AF78607B681B69FB607B685B68A8
:1054E0007A6892689A607B689B687A6852685A60AA
:1054F000FB685B687A689A4203D17B689A68FB68AC
:105500005A607B6800221A61FB681B685A1EFB68A0
:105510001A60FB681B6818461437BD465DF8047BAB
:10552000704780B58EB004AFF860B9607A603B60B8
:105530007B6B002B0AD14FF0500383F31188BFF32C
:105540006F8FBFF34F8F3B6200BFFEE7BB6B002B3B
:105550000AD14FF0500383F31188BFF36F8FBFF36D
:105560004F8FFB6100BFFEE7A0233B613B69A02B8F
:105570000AD04FF0500383F31188BFF36F8FBFF34E
:105580004F8FBB6100BFFEE73B69BB6B002B1ED09A
:105590007B6B002B1BD0BB6B7B627B6A7A6B1A63C5
:1055A0007B6A022283F89D20002303937B6A029387
:1055B00007F1140301933B6B00933B687A68B96869
:1055C000F86800F051F8786A00F0ECF801E0002388
:1055D0007B617B6918462837BD4680BD80B58CB09D
:1055E00004AFF860B9603B601346FB80FB889B000A
:1055F000184600F0F1FE78617B69002B0ED0A020E8
:1056000000F0EAFEF861FB69002B03D0FB697A69C0
:105610001A6305E0786900F0ABFF01E00023FB614D
:10562000FB69002B17D0FB69002283F89D20FA88C4
:1056300000230393FB690293FB6A0193BB6A009307
:105640003B68B968F86800F00FF8F86900F0AAF84C
:105650000123BB6102E04FF0FF33BB61BB69184619
:105660002037BD4680BD000080B588B000AFF8602F
:10567000B9607A603B603B6B1A6B7B6803F18043D7
:10568000013B9B001344BB61BB6923F00703BB6173
:10569000BB6903F00703002B0AD04FF0500383F3DC
:1056A0001188BFF36F8FBFF34F8F7B6100BFFEE7A1
:1056B000BB68002B1FD00023FB6112E0BA68FB69B6
:1056C000134419783A6BFB69134434330A461A7051
:1056D000BA68FB6913441B78002B06D0FB690133C1
:1056E000FB61FB690F2BE9D900E000BF3B6B002297
:1056F00083F8432003E03B6B002283F83420BB6A2D
:10570000062B01D90623BB623B6BBA6ADA623B6B9C
:10571000BA6A5A643B6B00229A643B6B04331846A6
:10572000FFF76BFE3B6B18331846FFF766FE3B6BCB
:105730003A6B1A61BB6AC3F107023B6B9A613B6B20
:105740003A6B5A623B6B0022C3F898203B6B0022F5
:1057500083F89C203B6B4C334C220021184601F00F
:1057600025F83B6B0C4A1A653B6B0C4A5A653B6B40
:105770000B4A9A653A68F968B86900F01FFC02465E
:105780003B6B1A60FB6A002B02D0FB6A3A6B1A6013
:1057900000BF2037BD4680BDDC8100204482002050
:1057A000AC82002080B582B000AF786000F032FD9E
:1057B0002A4B1B680133294A1360294B1B68002BB5
:1057C00009D1274A7B681360244B1B68012B10D139
:1057D00000F0CCFA0DE0234B1B68002B09D1204BC5
:1057E0001B68DA6A7B68DB6A9A4202D81C4A7B68CB
:1057F00013601D4B1B6801331B4A13607B68DB6A17
:1058000001229A40194B1B681343184A13607B68A6
:10581000DA6A13469B0013449B00154A1A447B68BE
:10582000043319461046FFF7F5FD00F023FD0D4B3C
:105830001B68002B0ED00A4B1B68DA6A7B68DB6A98
:105840009A4207D20B4B4FF080521A60BFF34F8F32
:10585000BFF36F8F00BF0837BD4680BD884500206D
:105860008844002094450020A44500209045002055
:105870008C44002004ED00E080B584B000AF786077
:105880000023FB607B68002B17D0134B1B68002B99
:105890000AD04FF0500383F31188BFF36F8FBFF32B
:1058A0004F8FBB6000BFFEE700F084F800217868EE
:1058B00000F01EFB00F08CF8F860FB68002B07D1AD
:1058C000064B4FF080521A60BFF34F8FBFF36F8FBC
:1058D00000BF1037BD4680BDB045002004ED00E09C
:1058E00080B58AB004AF0023BB6000237B603A46DA
:1058F000391D07F108031846FAF7B4FE39687B68CA
:10590000BA68029201930023009300230A462149BA
:105910002148FFF706FE0346204A13601F4B1B6811
:10592000002B02D001237B6101E000237B617B69B6
:10593000012B1BD14FF0500383F31188BFF36F8FFE
:10594000BFF34F8F3B6100BF154B1B684C33154AAB
:105950001360154B4FF0FF321A60144B01221A608E
:10596000134B00221A6000F0B3FB0EE07B69B3F129
:10597000FF3F0AD14FF0500383F31188BFF36F8FBD
:10598000BFF34F8FFB6000BFFEE700BF1837BD4677
:1059900080BD00BF006B00083D5D0008AC450020E5
:1059A0008844002064000020A84500209445002081
:1059B0008C45002080B400AF044B1B680133034AC0
:1059C000136000BFBD465DF8047B7047B045002002
:1059D00080B584B000AF0023FB600023BB60414B67
:1059E0001B68002B0AD14FF0500383F31188BFF3DB
:1059F0006F8FBFF34F8F3B6000BFFEE700F00AFCE4
:105A0000384B1B68013B374A1360364B1B68002B31
:105A100061D1354B1B68002B5DD02EE0334BDB682A
:105A2000DB68FB60FB6818331846FFF750FDFB6826
:105A300004331846FFF74BFDFB68DB6A01229A40EE
:105A40002B4B1B6813432A4A1360FB68DA6A134620
:105A50009B0013449B00274A1A44FB6804331946F1
:105A60001046FFF7D7FCFB68DA6A234B1B68DB6A3A
:105A70009A4202D3214B01221A601C4B1B68002B57
:105A8000CCD1FB68002B01D000F012FA1C4B1B6834
:105A90007B607B68002B10D000F036F80346002BAB
:105AA00002D0164B01221A607B68013B7B607B6849
:105AB000002BF1D1124B00221A60104B1B68002BF7
:105AC00009D00123BB600F4B4FF080521A60BFF327
:105AD0004F8FBFF36F8F00F0CDFBBB6818461037B8
